{
  "_format": "hh-sol-artifact-1",
  "contractName": "BuyMeACoffee",
  "sourceName": "contracts/BuyMeACoffee.sol",
  "abi": [
    {
      "inputs": [],
      "stateMutability": "nonpayable",
      "type": "constructor"
    },
    {
      "anonymous": false,
      "inputs": [
        {
          "indexed": true,
          "internalType": "address",
          "name": "from",
          "type": "address"
        },
        {
          "indexed": false,
          "internalType": "uint256",
          "name": "timestamp",
          "type": "uint256"
        },
        {
          "indexed": false,
          "internalType": "string",
          "name": "name",
          "type": "string"
        },
        {
          "indexed": false,
          "internalType": "string",
          "name": "message",
          "type": "string"
        },
        {
          "indexed": false,
          "internalType": "bool",
          "name": "isLargeCoffee",
          "type": "bool"
        }
      ],
      "name": "NewMemo",
      "type": "event"
    },
    {
      "anonymous": false,
      "inputs": [
        {
          "indexed": true,
          "internalType": "address",
          "name": "previousOwner",
          "type": "address"
        },
        {
          "indexed": true,
          "internalType": "address",
          "name": "newOwner",
          "type": "address"
        }
      ],
      "name": "OwnershipTransferred",
      "type": "event"
    },
    {
      "anonymous": false,
      "inputs": [
        {
          "indexed": false,
          "internalType": "uint256",
          "name": "amount",
          "type": "uint256"
        },
        {
          "indexed": false,
          "internalType": "address",
          "name": "withdrawalAddress",
          "type": "address"
        }
      ],
      "name": "Withdrawed",
      "type": "event"
    },
    {
      "anonymous": false,
      "inputs": [
        {
          "indexed": true,
          "internalType": "address",
          "name": "oldAddress",
          "type": "address"
        },
        {
          "indexed": true,
          "internalType": "address",
          "name": "newAddress",
          "type": "address"
        }
      ],
      "name": "withdrawalAddressUpdated",
      "type": "event"
    },
    {
      "inputs": [
        {
          "internalType": "string",
          "name": "_name",
          "type": "string"
        },
        {
          "internalType": "string",
          "name": "_message",
          "type": "string"
        }
      ],
      "name": "buyCoffee",
      "outputs": [],
      "stateMutability": "payable",
      "type": "function"
    },
    {
      "inputs": [],
      "name": "getBalance",
      "outputs": [
        {
          "internalType": "uint256",
          "name": "",
          "type": "uint256"
        }
      ],
      "stateMutability": "view",
      "type": "function"
    },
    {
      "inputs": [],
      "name": "getMemos",
      "outputs": [
        {
          "components": [
            {
              "internalType": "address",
              "name": "from",
              "type": "address"
            },
            {
              "internalType": "uint256",
              "name": "timestamp",
              "type": "uint256"
            },
            {
              "internalType": "string",
              "name": "name",
              "type": "string"
            },
            {
              "internalType": "string",
              "name": "message",
              "type": "string"
            },
            {
              "internalType": "bool",
              "name": "isLargeCoffee",
              "type": "bool"
            }
          ],
          "internalType": "struct BuyMeACoffee.Memo[]",
          "name": "",
          "type": "tuple[]"
        }
      ],
      "stateMutability": "view",
      "type": "function"
    },
    {
      "inputs": [],
      "name": "owner",
      "outputs": [
        {
          "internalType": "address",
          "name": "",
          "type": "address"
        }
      ],
      "stateMutability": "view",
      "type": "function"
    },
    {
      "inputs": [],
      "name": "renounceOwnership",
      "outputs": [],
      "stateMutability": "nonpayable",
      "type": "function"
    },
    {
      "inputs": [
        {
          "internalType": "address",
          "name": "newOwner",
          "type": "address"
        }
      ],
      "name": "transferOwnership",
      "outputs": [],
      "stateMutability": "nonpayable",
      "type": "function"
    },
    {
      "inputs": [
        {
          "internalType": "address",
          "name": "newAddress",
          "type": "address"
        }
      ],
      "name": "updateWithdrawalAddress",
      "outputs": [],
      "stateMutability": "nonpayable",
      "type": "function"
    },
    {
      "inputs": [],
      "name": "withdrawTips",
      "outputs": [],
      "stateMutability": "nonpayable",
      "type": "function"
    },
    {
      "inputs": [],
      "name": "withdrawalAddress",
      "outputs": [
        {
          "internalType": "address payable",
          "name": "",
          "type": "address"
        }
      ],
      "stateMutability": "view",
      "type": "function"
    }
  ],
  "bytecode": "0x608060405234801561001057600080fd5b5061002d61002261007360201b60201c565b61007b60201b60201c565b33600160006101000a81548173ffffffffffffffffffffffffffffffffffffffff021916908373ffffffffffffffffffffffffffffffffffffffff16021790555061013f565b600033905090565b60008060009054906101000a900473ffffffffffffffffffffffffffffffffffffffff169050816000806101000a81548173ffffffffffffffffffffffffffffffffffffffff021916908373ffffffffffffffffffffffffffffffffffffffff1602179055508173ffffffffffffffffffffffffffffffffffffffff168173ffffffffffffffffffffffffffffffffffffffff167f8be0079c531659141344cd1fd0a4f28419497f9722a3daafe3b4186f6b6457e060405160405180910390a35050565b6116938061014e6000396000f3fe6080604052600436106100865760003560e01c8063715018a611610059578063715018a614610112578063865c5172146101295780638da5cb5b14610154578063f2bcd0221461017f578063f2fde38b146101aa57610086565b806312065fe01461008b578063204206e1146100b65780633aaa74b2146100d25780635e72fc5d146100e9575b600080fd5b34801561009757600080fd5b506100a06101d3565b6040516100ad9190610b1c565b60405180910390f35b6100d060048036038101906100cb9190610c91565b6101db565b005b3480156100de57600080fd5b506100e7610393565b005b3480156100f557600080fd5b50610110600480360381019061010b9190610d67565b6104e6565b005b34801561011e57600080fd5b506101276106d5565b005b34801561013557600080fd5b5061013e6106e9565b60405161014b9190610f8b565b60405180910390f35b34801561016057600080fd5b506101696108e7565b6040516101769190610fbc565b60405180910390f35b34801561018b57600080fd5b50610194610910565b6040516101a19190610ff8565b60405180910390f35b3480156101b657600080fd5b506101d160048036038101906101cc9190610d67565b610936565b005b600047905090565b6000341161021e576040517f08c379a000000000000000000000000000000000000000000000000000000000815260040161021590611070565b60405180910390fd5b60026040518060a001604052803373ffffffffffffffffffffffffffffffffffffffff168152602001428152602001848152602001838152602001660aa87bee5380003410151515815250908060018154018082558091505060019003906000526020600020906005020160009091909190915060008201518160000160006101000a81548173ffffffffffffffffffffffffffffffffffffffff021916908373ffffffffffffffffffffffffffffffffffffffff1602179055506020820151816001015560408201518160020190816102f8919061129c565b50606082015181600301908161030e919061129c565b5060808201518160040160006101000a81548160ff02191690831515021790555050503373ffffffffffffffffffffffffffffffffffffffff167ff60127f6e3d9514ff255ca311cafcaa77c5fb238e6ba211cf77f8684d318c868428484660aa87bee53800034101560405161038794939291906113b6565b60405180910390a25050565b600160009054906101000a900473ffffffffffffffffffffffffffffffffffffffff1673ffffffffffffffffffffffffffffffffffffffff163373ffffffffffffffffffffffffffffffffffffffff1614610423576040517f08c379a000000000000000000000000000000000000000000000000000000000815260040161041a90611455565b60405180910390fd5b6000479050600160009054906101000a900473ffffffffffffffffffffffffffffffffffffffff1673ffffffffffffffffffffffffffffffffffffffff166108fc479081150290604051600060405180830381858888f1935050505061048857600080fd5b7fa54ce7327877aa2bfe1c079e3bb0da2b7a774fe90a5af3afb74369f940e69c8a81600160009054906101000a900473ffffffffffffffffffffffffffffffffffffffff166040516104db9291906114ca565b60405180910390a150565b6104ee6109b9565b600073ffffffffffffffffffffffffffffffffffffffff168173ffffffffffffffffffffffffffffffffffffffff160361055d576040517f08c379a000000000000000000000000000000000000000000000000000000000815260040161055490611455565b60405180910390fd5b600160009054906101000a900473ffffffffffffffffffffffffffffffffffffffff1673ffffffffffffffffffffffffffffffffffffffff168173ffffffffffffffffffffffffffffffffffffffff16036105ed576040517f08c379a00000000000000000000000000000000000000000000000000000000081526004016105e49061153f565b60405180910390fd5b6000600160009054906101000a900473ffffffffffffffffffffffffffffffffffffffff16905081600160006101000a81548173ffffffffffffffffffffffffffffffffffffffff021916908373ffffffffffffffffffffffffffffffffffffffff160217905550600160009054906101000a900473ffffffffffffffffffffffffffffffffffffffff1673ffffffffffffffffffffffffffffffffffffffff168173ffffffffffffffffffffffffffffffffffffffff167f0fad58b098adc6573e44e5590c65f22828f39ebdfb3ab6a6bfae14b1f86f69a960405160405180910390a35050565b6106dd6109b9565b6106e76000610a37565b565b60606002805480602002602001604051908101604052809291908181526020016000905b828210156108de57838290600052602060002090600502016040518060a00160405290816000820160009054906101000a900473ffffffffffffffffffffffffffffffffffffffff1673ffffffffffffffffffffffffffffffffffffffff1673ffffffffffffffffffffffffffffffffffffffff168152602001600182015481526020016002820180546107a0906110bf565b80601f01602080910402602001604051908101604052809291908181526020018280546107cc906110bf565b80156108195780601f106107ee57610100808354040283529160200191610819565b820191906000526020600020905b8154815290600101906020018083116107fc57829003601f168201915b50505050508152602001600382018054610832906110bf565b80601f016020809104026020016040519081016040528092919081815260200182805461085e906110bf565b80156108ab5780601f10610880576101008083540402835291602001916108ab565b820191906000526020600020905b81548152906001019060200180831161088e57829003601f168201915b505050505081526020016004820160009054906101000a900460ff1615151515815250508152602001906001019061070d565b50505050905090565b60008060009054906101000a900473ffffffffffffffffffffffffffffffffffffffff16905090565b600160009054906101000a900473ffffffffffffffffffffffffffffffffffffffff1681565b61093e6109b9565b600073ffffffffffffffffffffffffffffffffffffffff168173ffffffffffffffffffffffffffffffffffffffff16036109ad576040517f08c379a00000000000000000000000000000000000000000000000000000000081526004016109a4906115d1565b60405180910390fd5b6109b681610a37565b50565b6109c1610afb565b73ffffffffffffffffffffffffffffffffffffffff166109df6108e7565b73ffffffffffffffffffffffffffffffffffffffff1614610a35576040517f08c379a0000000000000000000000000000000000000000000000000000000008152600401610a2c9061163d565b60405180910390fd5b565b60008060009054906101000a900473ffffffffffffffffffffffffffffffffffffffff169050816000806101000a81548173ffffffffffffffffffffffffffffffffffffffff021916908373ffffffffffffffffffffffffffffffffffffffff1602179055508173ffffffffffffffffffffffffffffffffffffffff168173ffffffffffffffffffffffffffffffffffffffff167f8be0079c531659141344cd1fd0a4f28419497f9722a3daafe3b4186f6b6457e060405160405180910390a35050565b600033905090565b6000819050919050565b610b1681610b03565b82525050565b6000602082019050610b316000830184610b0d565b92915050565b6000604051905090565b600080fd5b600080fd5b600080fd5b600080fd5b6000601f19601f8301169050919050565b7f4e487b7100000000000000000000000000000000000000000000000000000000600052604160045260246000fd5b610b9e82610b55565b810181811067ffffffffffffffff82111715610bbd57610bbc610b66565b5b80604052505050565b6000610bd0610b37565b9050610bdc8282610b95565b919050565b600067ffffffffffffffff821115610bfc57610bfb610b66565b5b610c0582610b55565b9050602081019050919050565b82818337600083830152505050565b6000610c34610c2f84610be1565b610bc6565b905082815260208101848484011115610c5057610c4f610b50565b5b610c5b848285610c12565b509392505050565b600082601f830112610c7857610c77610b4b565b5b8135610c88848260208601610c21565b91505092915050565b60008060408385031215610ca857610ca7610b41565b5b600083013567ffffffffffffffff811115610cc657610cc5610b46565b5b610cd285828601610c63565b925050602083013567ffffffffffffffff811115610cf357610cf2610b46565b5b610cff85828601610c63565b9150509250929050565b600073ffffffffffffffffffffffffffffffffffffffff82169050919050565b6000610d3482610d09565b9050919050565b610d4481610d29565b8114610d4f57600080fd5b50565b600081359050610d6181610d3b565b92915050565b600060208284031215610d7d57610d7c610b41565b5b6000610d8b84828501610d52565b91505092915050565b600081519050919050565b600082825260208201905092915050565b6000819050602082019050919050565b610dc981610d29565b82525050565b610dd881610b03565b82525050565b600081519050919050565b600082825260208201905092915050565b60005b83811015610e18578082015181840152602081019050610dfd565b60008484015250505050565b6000610e2f82610dde565b610e398185610de9565b9350610e49818560208601610dfa565b610e5281610b55565b840191505092915050565b60008115159050919050565b610e7281610e5d565b82525050565b600060a083016000830151610e906000860182610dc0565b506020830151610ea36020860182610dcf565b5060408301518482036040860152610ebb8282610e24565b91505060608301518482036060860152610ed58282610e24565b9150506080830151610eea6080860182610e69565b508091505092915050565b6000610f018383610e78565b905092915050565b6000602082019050919050565b6000610f2182610d94565b610f2b8185610d9f565b935083602082028501610f3d85610db0565b8060005b85811015610f795784840389528151610f5a8582610ef5565b9450610f6583610f09565b925060208a01995050600181019050610f41565b50829750879550505050505092915050565b60006020820190508181036000830152610fa58184610f16565b905092915050565b610fb681610d29565b82525050565b6000602082019050610fd16000830184610fad565b92915050565b6000610fe282610d09565b9050919050565b610ff281610fd7565b82525050565b600060208201905061100d6000830184610fe9565b92915050565b600082825260208201905092915050565b7f63616e27742062757920636f6666656520666f72206672656521000000000000600082015250565b600061105a601a83611013565b915061106582611024565b602082019050919050565b600060208201905081810360008301526110898161104d565b9050919050565b7f4e487b7100000000000000000000000000000000000000000000000000000000600052602260045260246000fd5b600060028204905060018216806110d757607f821691505b6020821081036110ea576110e9611090565b5b50919050565b60008190508160005260206000209050919050565b60006020601f8301049050919050565b600082821b905092915050565b6000600883026111527fffffffffffffffffffffffffffffffffffffffffffffffffffffffffffffffff82611115565b61115c8683611115565b95508019841693508086168417925050509392505050565b6000819050919050565b600061119961119461118f84610b03565b611174565b610b03565b9050919050565b6000819050919050565b6111b38361117e565b6111c76111bf826111a0565b848454611122565b825550505050565b600090565b6111dc6111cf565b6111e78184846111aa565b505050565b5b8181101561120b576112006000826111d4565b6001810190506111ed565b5050565b601f82111561125057611221816110f0565b61122a84611105565b81016020851015611239578190505b61124d61124585611105565b8301826111ec565b50505b505050565b600082821c905092915050565b600061127360001984600802611255565b1980831691505092915050565b600061128c8383611262565b9150826002028217905092915050565b6112a582610dde565b67ffffffffffffffff8111156112be576112bd610b66565b5b6112c882546110bf565b6112d382828561120f565b600060209050601f83116001811461130657600084156112f4578287015190505b6112fe8582611280565b865550611366565b601f198416611314866110f0565b60005b8281101561133c57848901518255600182019150602085019450602081019050611317565b868310156113595784890151611355601f891682611262565b8355505b6001600288020188555050505b505050505050565b600061137982610dde565b6113838185611013565b9350611393818560208601610dfa565b61139c81610b55565b840191505092915050565b6113b081610e5d565b82525050565b60006080820190506113cb6000830187610b0d565b81810360208301526113dd818661136e565b905081810360408301526113f1818561136e565b905061140060608301846113a7565b95945050505050565b7f496e636f72726563742061646472657373000000000000000000000000000000600082015250565b600061143f601183611013565b915061144a82611409565b602082019050919050565b6000602082019050818103600083015261146e81611432565b9050919050565b600061149061148b61148684610d09565b611174565b610d09565b9050919050565b60006114a282611475565b9050919050565b60006114b482611497565b9050919050565b6114c4816114a9565b82525050565b60006040820190506114df6000830185610b0d565b6114ec60208301846114bb565b9392505050565b7f416c726561647920726567697374726564000000000000000000000000000000600082015250565b6000611529601183611013565b9150611534826114f3565b602082019050919050565b600060208201905081810360008301526115588161151c565b9050919050565b7f4f776e61626c653a206e6577206f776e657220697320746865207a65726f206160008201527f6464726573730000000000000000000000000000000000000000000000000000602082015250565b60006115bb602683611013565b91506115c68261155f565b604082019050919050565b600060208201905081810360008301526115ea816115ae565b9050919050565b7f4f776e61626c653a2063616c6c6572206973206e6f7420746865206f776e6572600082015250565b6000611627602083611013565b9150611632826115f1565b602082019050919050565b600060208201905081810360008301526116568161161a565b905091905056fea26469706673582212207e395cfbccdc66649a978c0a20637d2d4d5a2e6eb3cc3e6e130cbbf9f9f3f9b864736f6c63430008110033",
  "linkReferences": {},
  "deployedLinkReferences": {}
}